{"abi":[{"inputs":[{"internalType":"string[]","name":"candidateNames","type":"string[]"}],"stateMutability":"nonpayable","type":"constructor","name":"constructor"},{"inputs":[{"internalType":"uint256","name":"","type":"uint256"}],"name":"candidates","outputs":[{"internalType":"string","name":"name","type":"string"},{"internalType":"uint256","name":"voteCount","type":"uint256"}],"stateMutability":"view","type":"function"},{"inputs":[],"name":"chairperson","outputs":[{"internalType":"address","name":"","type":"address"}],"stateMutability":"view","type":"function"},{"inputs":[],"name":"election_state","outputs":[{"internalType":"enum Voting.ELECTION_STATE","name":"","type":"uint8"}],"stateMutability":"view","type":"function"},{"inputs":[],"name":"getWinnerName","outputs":[],"stateMutability":"nonpayable","type":"function"},{"inputs":[{"internalType":"uint256","name":"candidate","type":"uint256"}],"name":"vote","outputs":[],"stateMutability":"nonpayable","type":"function"},{"inputs":[{"internalType":"address","name":"","type":"address"}],"name":"voters","outputs":[{"internalType":"bool","name":"voted","type":"bool"},{"internalType":"uint256","name":"vote","type":"uint256"}],"stateMutability":"view","type":"function"},{"inputs":[],"name":"winnerName","outputs":[{"internalType":"string","name":"","type":"string"}],"stateMutability":"view","type":"function"},{"inputs":[],"name":"winningCandidate","outputs":[{"internalType":"uint256","name":"winningCandidate_","type":"uint256"}],"stateMutability":"view","type":"function"}],"bytecode":"60806040523480156200001157600080fd5b5060405162000b1c38038062000b1c8339810160408190526200003491620001d8565b600180546001600160a81b031916336101000260ff191617905560005b8151811015620000e157600360405180604001604052808484815181106200007d576200007d62000324565b6020908102919091018101518252600091810182905283546001810185559382529081902082518051939460020290910192620000be9284920190620000e9565b506020820151816001015550508080620000d8906200033a565b91505062000051565b5050620003a1565b828054620000f79062000364565b90600052602060002090601f0160209004810192826200011b576000855562000166565b82601f106200013657805160ff191683800117855562000166565b8280016001018555821562000166579182015b828111156200016657825182559160200191906001019062000149565b506200017492915062000178565b5090565b5b8082111562000174576000815560010162000179565b634e487b7160e01b600052604160045260246000fd5b604051601f8201601f191681016001600160401b0381118282101715620001d057620001d06200018f565b604052919050565b60006020808385031215620001ec57600080fd5b82516001600160401b03808211156200020457600080fd5b8185019150601f86818401126200021a57600080fd5b8251828111156200022f576200022f6200018f565b8060051b62000240868201620001a5565b918252848101860191868101908a8411156200025b57600080fd5b87870192505b8383101562000316578251868111156200027b5760008081fd5b8701603f81018c136200028e5760008081fd5b8881015187811115620002a557620002a56200018f565b620002b8818801601f19168b01620001a5565b81815260408e81848601011115620002d05760008081fd5b60005b83811015620002f0578481018201518382018e01528c01620002d3565b83811115620003025760008d85850101525b505084525050918701919087019062000261565b9a9950505050505050505050565b634e487b7160e01b600052603260045260246000fd5b60006000198214156200035d57634e487b7160e01b600052601160045260246000fd5b5060010190565b600181811c908216806200037957607f821691505b602082108114156200039b57634e487b7160e01b600052602260045260246000fd5b50919050565b61076b80620003b16000396000f3fe608060405234801561001057600080fd5b50600436106100885760003560e01c8063a3ec138d1161005b578063a3ec138d14610100578063d28178d714610144578063d5d58e081461015a578063e2ba53f01461017457600080fd5b80630121b93f1461008d5780632bfda515146100a25780632e4176cf146100aa5780633477ee2e146100df575b600080fd5b6100a061009b366004610592565b610189565b005b6100a0610286565b6001546100c29061010090046001600160a01b031681565b6040516001600160a01b0390911681526020015b60405180910390f35b6100f26100ed366004610592565b61032b565b6040516100d69291906105f8565b61012d61010e36600461061a565b6002602052600090815260409020805460019091015460ff9091169082565b6040805192151583526020830191909152016100d6565b61014c6103e7565b6040519081526020016100d6565b6001546101679060ff1681565b6040516100d69190610660565b61017c610464565b6040516100d69190610688565b336000908152600260205260408120906001805460ff16908111156101b0576101b061064a565b146101f35760405162461bcd60e51b815260206004820152600e60248201526d3b37ba34b7339031b637b9b2b21760911b60448201526064015b60405180910390fd5b805460ff16156102365760405162461bcd60e51b815260206004820152600e60248201526d20b63932b0b23c903b37ba32b21760911b60448201526064016101ea565b805460ff191660019081178255818101839055600380548490811061025d5761025d61069b565b9060005260206000209060020201600101600082825461027d91906106c7565b90915550505050565b60006001805460ff169081111561029f5761029f61064a565b146102dd5760405162461bcd60e51b815260206004820152600e60248201526d3b37ba34b7339031b637b9b2b21760911b60448201526064016101ea565b6001805460ff19168117905560036102f36103e7565b815481106103035761030361069b565b600091825260208220600290910201805461031d906106df565b6103289291906104f2565b50565b6003818154811061033b57600080fd5b906000526020600020906002020160009150905080600001805461035e906106df565b80601f016020809104026020016040519081016040528092919081815260200182805461038a906106df565b80156103d75780601f106103ac576101008083540402835291602001916103d7565b820191906000526020600020905b8154815290600101906020018083116103ba57829003601f168201915b5050505050908060010154905082565b600080805b60035481101561045f57816003828154811061040a5761040a61069b565b906000526020600020906002020160010154111561044d57600381815481106104355761043561069b565b90600052602060002090600202016001015491508092505b806104578161071a565b9150506103ec565b505090565b60008054610471906106df565b80601f016020809104026020016040519081016040528092919081815260200182805461049d906106df565b80156104ea5780601f106104bf576101008083540402835291602001916104ea565b820191906000526020600020905b8154815290600101906020018083116104cd57829003601f168201915b505050505081565b8280546104fe906106df565b90600052602060002090601f016020900481019282610520576000855561056d565b82601f10610531578054855561056d565b8280016001018555821561056d57600052602060002091601f016020900482015b8281111561056d578254825591600101919060010190610552565b5061057992915061057d565b5090565b5b80821115610579576000815560010161057e565b6000602082840312156105a457600080fd5b5035919050565b6000815180845260005b818110156105d1576020818501810151868301820152016105b5565b818111156105e3576000602083870101525b50601f01601f19169290920160200192915050565b60408152600061060b60408301856105ab565b90508260208301529392505050565b60006020828403121561062c57600080fd5b81356001600160a01b038116811461064357600080fd5b9392505050565b634e487b7160e01b600052602160045260246000fd5b602081016002831061068257634e487b7160e01b600052602160045260246000fd5b91905290565b60208152600061064360208301846105ab565b634e487b7160e01b600052603260045260246000fd5b634e487b7160e01b600052601160045260246000fd5b600082198211156106da576106da6106b1565b500190565b600181811c908216806106f357607f821691505b6020821081141561071457634e487b7160e01b600052602260045260246000fd5b50919050565b600060001982141561072e5761072e6106b1565b506001019056fea2646970667358221220a0df906c51e73797f2011c5567c6fa9167a0409e7c443a83f4f2b43d0563a18364736f6c63430008090033","bytecodeSha1":"55b289d985d1ba828ad5c359c6e2bcc7ad89b47d","compiler":{"evm_version":"istanbul","optimizer":{"enabled":true,"runs":200},"version":"0.8.9+commit.e5eed63a"},"contractName":"Voting","language":"Solidity","natspec":{"kind":"dev","methods":{"vote(uint256)":{"notice":"Give your vote"}},"version":1},"opcodes":"PUSH1 0x80 PUSH1 0x40 MSTORE CALLVALUE DUP1 ISZERO PUSH2 0x10 JUMPI PUSH1 0x0 DUP1 REVERT JUMPDEST POP PUSH1 0x4 CALLDATASIZE LT PUSH2 0x88 JUMPI PUSH1 0x0 CALLDATALOAD PUSH1 0xE0 SHR DUP1 PUSH4 0xA3EC138D GT PUSH2 0x5B JUMPI DUP1 PUSH4 0xA3EC138D EQ PUSH2 0x100 JUMPI DUP1 PUSH4 0xD28178D7 EQ PUSH2 0x144 JUMPI DUP1 PUSH4 0xD5D58E08 EQ PUSH2 0x15A JUMPI DUP1 PUSH4 0xE2BA53F0 EQ PUSH2 0x174 JUMPI PUSH1 0x0 DUP1 REVERT JUMPDEST DUP1 PUSH4 0x121B93F EQ PUSH2 0x8D JUMPI DUP1 PUSH4 0x2BFDA515 EQ PUSH2 0xA2 JUMPI DUP1 PUSH4 0x2E4176CF EQ PUSH2 0xAA JUMPI DUP1 PUSH4 0x3477EE2E EQ PUSH2 0xDF JUMPI JUMPDEST PUSH1 0x0 DUP1 REVERT JUMPDEST PUSH2 0xA0 PUSH2 0x9B CALLDATASIZE PUSH1 0x4 PUSH2 0x592 JUMP JUMPDEST PUSH2 0x189 JUMP JUMPDEST STOP JUMPDEST PUSH2 0xA0 PUSH2 0x286 JUMP JUMPDEST PUSH1 0x1 SLOAD PUSH2 0xC2 SWAP1 PUSH2 0x100 SWAP1 DIV PUSH1 0x1 PUSH1 0x1 PUSH1 0xA0 SHL SUB AND DUP2 JUMP JUMPDEST PUSH1 0x40 MLOAD PUSH1 0x1 PUSH1 0x1 PUSH1 0xA0 SHL SUB SWAP1 SWAP2 AND DUP2 MSTORE PUSH1 0x20 ADD JUMPDEST PUSH1 0x40 MLOAD DUP1 SWAP2 SUB SWAP1 RETURN JUMPDEST PUSH2 0xF2 PUSH2 0xED CALLDATASIZE PUSH1 0x4 PUSH2 0x592 JUMP JUMPDEST PUSH2 0x32B JUMP JUMPDEST PUSH1 0x40 MLOAD PUSH2 0xD6 SWAP3 SWAP2 SWAP1 PUSH2 0x5F8 JUMP JUMPDEST PUSH2 0x12D PUSH2 0x10E CALLDATASIZE PUSH1 0x4 PUSH2 0x61A JUMP JUMPDEST PUSH1 0x2 PUSH1 0x20 MSTORE PUSH1 0x0 SWAP1 DUP2 MSTORE PUSH1 0x40 SWAP1 KECCAK256 DUP1 SLOAD PUSH1 0x1 SWAP1 SWAP2 ADD SLOAD PUSH1 0xFF SWAP1 SWAP2 AND SWAP1 DUP3 JUMP JUMPDEST PUSH1 0x40 DUP1 MLOAD SWAP3 ISZERO ISZERO DUP4 MSTORE PUSH1 0x20 DUP4 ADD SWAP2 SWAP1 SWAP2 MSTORE ADD PUSH2 0xD6 JUMP JUMPDEST PUSH2 0x14C PUSH2 0x3E7 JUMP JUMPDEST PUSH1 0x40 MLOAD SWAP1 DUP2 MSTORE PUSH1 0x20 ADD PUSH2 0xD6 JUMP JUMPDEST PUSH1 0x1 SLOAD PUSH2 0x167 SWAP1 PUSH1 0xFF AND DUP2 JUMP JUMPDEST PUSH1 0x40 MLOAD PUSH2 0xD6 SWAP2 SWAP1 PUSH2 0x660 JUMP JUMPDEST PUSH2 0x17C PUSH2 0x464 JUMP JUMPDEST PUSH1 0x40 MLOAD PUSH2 0xD6 SWAP2 SWAP1 PUSH2 0x688 JUMP JUMPDEST CALLER PUSH1 0x0 SWAP1 DUP2 MSTORE PUSH1 0x2 PUSH1 0x20 MSTORE PUSH1 0x40 DUP2 KECCAK256 SWAP1 PUSH1 0x1 DUP1 SLOAD PUSH1 0xFF AND SWAP1 DUP2 GT ISZERO PUSH2 0x1B0 JUMPI PUSH2 0x1B0 PUSH2 0x64A JUMP JUMPDEST EQ PUSH2 0x1F3 JUMPI PUSH1 0x40 MLOAD PUSH3 0x461BCD PUSH1 0xE5 SHL DUP2 MSTORE PUSH1 0x20 PUSH1 0x4 DUP3 ADD MSTORE PUSH1 0xE PUSH1 0x24 DUP3 ADD MSTORE PUSH14 0x3B37BA34B7339031B637B9B2B217 PUSH1 0x91 SHL PUSH1 0x44 DUP3 ADD MSTORE PUSH1 0x64 ADD JUMPDEST PUSH1 0x40 MLOAD DUP1 SWAP2 SUB SWAP1 REVERT JUMPDEST DUP1 SLOAD PUSH1 0xFF AND ISZERO PUSH2 0x236 JUMPI PUSH1 0x40 MLOAD PUSH3 0x461BCD PUSH1 0xE5 SHL DUP2 MSTORE PUSH1 0x20 PUSH1 0x4 DUP3 ADD MSTORE PUSH1 0xE PUSH1 0x24 DUP3 ADD MSTORE PUSH14 0x20B63932B0B23C903B37BA32B217 PUSH1 0x91 SHL PUSH1 0x44 DUP3 ADD MSTORE PUSH1 0x64 ADD PUSH2 0x1EA JUMP JUMPDEST DUP1 SLOAD PUSH1 0xFF NOT AND PUSH1 0x1 SWAP1 DUP2 OR DUP3 SSTORE DUP2 DUP2 ADD DUP4 SWAP1 SSTORE PUSH1 0x3 DUP1 SLOAD DUP5 SWAP1 DUP2 LT PUSH2 0x25D JUMPI PUSH2 0x25D PUSH2 0x69B JUMP JUMPDEST SWAP1 PUSH1 0x0 MSTORE PUSH1 0x20 PUSH1 0x0 KECCAK256 SWAP1 PUSH1 0x2 MUL ADD PUSH1 0x1 ADD PUSH1 0x0 DUP3 DUP3 SLOAD PUSH2 0x27D SWAP2 SWAP1 PUSH2 0x6C7 JUMP JUMPDEST SWAP1 SWAP2 SSTORE POP POP POP POP JUMP JUMPDEST PUSH1 0x0 PUSH1 0x1 DUP1 SLOAD PUSH1 0xFF AND SWAP1 DUP2 GT ISZERO PUSH2 0x29F JUMPI PUSH2 0x29F PUSH2 0x64A JUMP JUMPDEST EQ PUSH2 0x2DD JUMPI PUSH1 0x40 MLOAD PUSH3 0x461BCD PUSH1 0xE5 SHL DUP2 MSTORE PUSH1 0x20 PUSH1 0x4 DUP3 ADD MSTORE PUSH1 0xE PUSH1 0x24 DUP3 ADD MSTORE PUSH14 0x3B37BA34B7339031B637B9B2B217 PUSH1 0x91 SHL PUSH1 0x44 DUP3 ADD MSTORE PUSH1 0x64 ADD PUSH2 0x1EA JUMP JUMPDEST PUSH1 0x1 DUP1 SLOAD PUSH1 0xFF NOT AND DUP2 OR SWAP1 SSTORE PUSH1 0x3 PUSH2 0x2F3 PUSH2 0x3E7 JUMP JUMPDEST DUP2 SLOAD DUP2 LT PUSH2 0x303 JUMPI PUSH2 0x303 PUSH2 0x69B JUMP JUMPDEST PUSH1 0x0 SWAP2 DUP3 MSTORE PUSH1 0x20 DUP3 KECCAK256 PUSH1 0x2 SWAP1 SWAP2 MUL ADD DUP1 SLOAD PUSH2 0x31D SWAP1 PUSH2 0x6DF JUMP JUMPDEST PUSH2 0x328 SWAP3 SWAP2 SWAP1 PUSH2 0x4F2 JUMP JUMPDEST POP JUMP JUMPDEST PUSH1 0x3 DUP2 DUP2 SLOAD DUP2 LT PUSH2 0x33B JUMPI PUSH1 0x0 DUP1 REVERT JUMPDEST SWAP1 PUSH1 0x0 MSTORE PUSH1 0x20 PUSH1 0x0 KECCAK256 SWAP1 PUSH1 0x2 MUL ADD PUSH1 0x0 SWAP2 POP SWAP1 POP DUP1 PUSH1 0x0 ADD DUP1 SLOAD PUSH2 0x35E SWAP1 PUSH2 0x6DF JUMP JUMPDEST DUP1 PUSH1 0x1F ADD PUSH1 0x20 DUP1 SWAP2 DIV MUL PUSH1 0x20 ADD PUSH1 0x40 MLOAD SWAP1 DUP2 ADD PUSH1 0x40 MSTORE DUP1 SWAP3 SWAP2 SWAP1 DUP2 DUP2 MSTORE PUSH1 0x20 ADD DUP3 DUP1 SLOAD PUSH2 0x38A SWAP1 PUSH2 0x6DF JUMP JUMPDEST DUP1 ISZERO PUSH2 0x3D7 JUMPI DUP1 PUSH1 0x1F LT PUSH2 0x3AC JUMPI PUSH2 0x100 DUP1 DUP4 SLOAD DIV MUL DUP4 MSTORE SWAP2 PUSH1 0x20 ADD SWAP2 PUSH2 0x3D7 JUMP JUMPDEST DUP3 ADD SWAP2 SWAP1 PUSH1 0x0 MSTORE PUSH1 0x20 PUSH1 0x0 KECCAK256 SWAP1 JUMPDEST DUP2 SLOAD DUP2 MSTORE SWAP1 PUSH1 0x1 ADD SWAP1 PUSH1 0x20 ADD DUP1 DUP4 GT PUSH2 0x3BA JUMPI DUP3 SWAP1 SUB PUSH1 0x1F AND DUP3 ADD SWAP2 JUMPDEST POP POP POP POP POP SWAP1 DUP1 PUSH1 0x1 ADD SLOAD SWAP1 POP DUP3 JUMP JUMPDEST PUSH1 0x0 DUP1 DUP1 JUMPDEST PUSH1 0x3 SLOAD DUP2 LT ISZERO PUSH2 0x45F JUMPI DUP2 PUSH1 0x3 DUP3 DUP2 SLOAD DUP2 LT PUSH2 0x40A JUMPI PUSH2 0x40A PUSH2 0x69B JUMP JUMPDEST SWAP1 PUSH1 0x0 MSTORE PUSH1 0x20 PUSH1 0x0 KECCAK256 SWAP1 PUSH1 0x2 MUL ADD PUSH1 0x1 ADD SLOAD GT ISZERO PUSH2 0x44D JUMPI PUSH1 0x3 DUP2 DUP2 SLOAD DUP2 LT PUSH2 0x435 JUMPI PUSH2 0x435 PUSH2 0x69B JUMP JUMPDEST SWAP1 PUSH1 0x0 MSTORE PUSH1 0x20 PUSH1 0x0 KECCAK256 SWAP1 PUSH1 0x2 MUL ADD PUSH1 0x1 ADD SLOAD SWAP2 POP DUP1 SWAP3 POP JUMPDEST DUP1 PUSH2 0x457 DUP2 PUSH2 0x71A JUMP JUMPDEST SWAP2 POP POP PUSH2 0x3EC JUMP JUMPDEST POP POP SWAP1 JUMP JUMPDEST PUSH1 0x0 DUP1 SLOAD PUSH2 0x471 SWAP1 PUSH2 0x6DF JUMP JUMPDEST DUP1 PUSH1 0x1F ADD PUSH1 0x20 DUP1 SWAP2 DIV MUL PUSH1 0x20 ADD PUSH1 0x40 MLOAD SWAP1 DUP2 ADD PUSH1 0x40 MSTORE DUP1 SWAP3 SWAP2 SWAP1 DUP2 DUP2 MSTORE PUSH1 0x20 ADD DUP3 DUP1 SLOAD PUSH2 0x49D SWAP1 PUSH2 0x6DF JUMP JUMPDEST DUP1 ISZERO PUSH2 0x4EA JUMPI DUP1 PUSH1 0x1F LT PUSH2 0x4BF JUMPI PUSH2 0x100 DUP1 DUP4 SLOAD DIV MUL DUP4 MSTORE SWAP2 PUSH1 0x20 ADD SWAP2 PUSH2 0x4EA JUMP JUMPDEST DUP3 ADD SWAP2 SWAP1 PUSH1 0x0 MSTORE PUSH1 0x20 PUSH1 0x0 KECCAK256 SWAP1 JUMPDEST DUP2 SLOAD DUP2 MSTORE SWAP1 PUSH1 0x1 ADD SWAP1 PUSH1 0x20 ADD DUP1 DUP4 GT PUSH2 0x4CD JUMPI DUP3 SWAP1 SUB PUSH1 0x1F AND DUP3 ADD SWAP2 JUMPDEST POP POP POP POP POP DUP2 JUMP JUMPDEST DUP3 DUP1 SLOAD PUSH2 0x4FE SWAP1 PUSH2 0x6DF JUMP JUMPDEST SWAP1 PUSH1 0x0 MSTORE PUSH1 0x20 PUSH1 0x0 KECCAK256 SWAP1 PUSH1 0x1F ADD PUSH1 0x20 SWAP1 DIV DUP2 ADD SWAP3 DUP3 PUSH2 0x520 JUMPI PUSH1 0x0 DUP6 SSTORE PUSH2 0x56D JUMP JUMPDEST DUP3 PUSH1 0x1F LT PUSH2 0x531 JUMPI DUP1 SLOAD DUP6 SSTORE PUSH2 0x56D JUMP JUMPDEST DUP3 DUP1 ADD PUSH1 0x1 ADD DUP6 SSTORE DUP3 ISZERO PUSH2 0x56D JUMPI PUSH1 0x0 MSTORE PUSH1 0x20 PUSH1 0x0 KECCAK256 SWAP2 PUSH1 0x1F ADD PUSH1 0x20 SWAP1 DIV DUP3 ADD JUMPDEST DUP3 DUP2 GT ISZERO PUSH2 0x56D JUMPI DUP3 SLOAD DUP3 SSTORE SWAP2 PUSH1 0x1 ADD SWAP2 SWAP1 PUSH1 0x1 ADD SWAP1 PUSH2 0x552 JUMP JUMPDEST POP PUSH2 0x579 SWAP3 SWAP2 POP PUSH2 0x57D JUMP JUMPDEST POP SWAP1 JUMP JUMPDEST JUMPDEST DUP1 DUP3 GT ISZERO PUSH2 0x579 JUMPI PUSH1 0x0 DUP2 SSTORE PUSH1 0x1 ADD PUSH2 0x57E JUMP JUMPDEST PUSH1 0x0 PUSH1 0x20 DUP3 DUP5 SUB SLT ISZERO PUSH2 0x5A4 JUMPI PUSH1 0x0 DUP1 REVERT JUMPDEST POP CALLDATALOAD SWAP2 SWAP1 POP JUMP JUMPDEST PUSH1 0x0 DUP2 MLOAD DUP1 DUP5 MSTORE PUSH1 0x0 JUMPDEST DUP2 DUP2 LT ISZERO PUSH2 0x5D1 JUMPI PUSH1 0x20 DUP2 DUP6 ADD DUP2 ADD MLOAD DUP7 DUP4 ADD DUP3 ADD MSTORE ADD PUSH2 0x5B5 JUMP JUMPDEST DUP2 DUP2 GT ISZERO PUSH2 0x5E3 JUMPI PUSH1 0x0 PUSH1 0x20 DUP4 DUP8 ADD ADD MSTORE JUMPDEST POP PUSH1 0x1F ADD PUSH1 0x1F NOT AND SWAP3 SWAP1 SWAP3 ADD PUSH1 0x20 ADD SWAP3 SWAP2 POP POP JUMP JUMPDEST PUSH1 0x40 DUP2 MSTORE PUSH1 0x0 PUSH2 0x60B PUSH1 0x40 DUP4 ADD DUP6 PUSH2 0x5AB JUMP JUMPDEST SWAP1 POP DUP3 PUSH1 0x20 DUP4 ADD MSTORE SWAP4 SWAP3 POP POP POP JUMP JUMPDEST PUSH1 0x0 PUSH1 0x20 DUP3 DUP5 SUB SLT ISZERO PUSH2 0x62C JUMPI PUSH1 0x0 DUP1 REVERT JUMPDEST DUP2 CALLDATALOAD PUSH1 0x1 PUSH1 0x1 PUSH1 0xA0 SHL SUB DUP2 AND DUP2 EQ PUSH2 0x643 JUMPI PUSH1 0x0 DUP1 REVERT JUMPDEST SWAP4 SWAP3 POP POP POP JUMP JUMPDEST PUSH4 0x4E487B71 PUSH1 0xE0 SHL PUSH1 0x0 MSTORE PUSH1 0x21 PUSH1 0x4 MSTORE PUSH1 0x24 PUSH1 0x0 REVERT JUMPDEST PUSH1 0x20 DUP2 ADD PUSH1 0x2 DUP4 LT PUSH2 0x682 JUMPI PUSH4 0x4E487B71 PUSH1 0xE0 SHL PUSH1 0x0 MSTORE PUSH1 0x21 PUSH1 0x4 MSTORE PUSH1 0x24 PUSH1 0x0 REVERT JUMPDEST SWAP2 SWAP1 MSTORE SWAP1 JUMP JUMPDEST PUSH1 0x20 DUP2 MSTORE PUSH1 0x0 PUSH2 0x643 PUSH1 0x20 DUP4 ADD DUP5 PUSH2 0x5AB JUMP JUMPDEST PUSH4 0x4E487B71 PUSH1 0xE0 SHL PUSH1 0x0 MSTORE PUSH1 0x32 PUSH1 0x4 MSTORE PUSH1 0x24 PUSH1 0x0 REVERT JUMPDEST PUSH4 0x4E487B71 PUSH1 0xE0 SHL PUSH1 0x0 MSTORE PUSH1 0x11 PUSH1 0x4 MSTORE PUSH1 0x24 PUSH1 0x0 REVERT JUMPDEST PUSH1 0x0 DUP3 NOT DUP3 GT ISZERO PUSH2 0x6DA JUMPI PUSH2 0x6DA PUSH2 0x6B1 JUMP JUMPDEST POP ADD SWAP1 JUMP JUMPDEST PUSH1 0x1 DUP2 DUP2 SHR SWAP1 DUP3 AND DUP1 PUSH2 0x6F3 JUMPI PUSH1 0x7F DUP3 AND SWAP2 POP JUMPDEST PUSH1 0x20 DUP3 LT DUP2 EQ ISZERO PUSH2 0x714 JUMPI PUSH4 0x4E487B71 PUSH1 0xE0 SHL PUSH1 0x0 MSTORE PUSH1 0x22 PUSH1 0x4 MSTORE PUSH1 0x24 PUSH1 0x0 REVERT JUMPDEST POP SWAP2 SWAP1 POP JUMP JUMPDEST PUSH1 0x0 PUSH1 0x0 NOT DUP3 EQ ISZERO PUSH2 0x72E JUMPI PUSH2 0x72E PUSH2 0x6B1 JUMP JUMPDEST POP PUSH1 0x1 ADD SWAP1 JUMP INVALID LOG2 PUSH5 0x6970667358 0x22 SLT KECCAK256 LOG0 0xDF SWAP1 PUSH13 0x51E73797F2011C5567C6FA9167 LOG0 BLOCKHASH SWAP15 PUSH29 0x443A83F4F2B43D0563A18364736F6C6343000809003300000000000000 ","sha1":"f82a884a25b885163f27bc3cc501ddc5f1c38a13","source":"// SPDX-License-Identifier: MIT\npragma solidity >=0.7.0 <0.9.0;\ncontract Voting {\n \n    // It will represent a single voter.\n    struct Voter {\n        bool voted;  // if true, that person already voted\n        uint vote;   // index of the voted proposal\n    }\n       enum ELECTION_STATE{\n        OPEN,CLOSED\n    }\n    string public winnerName;\n    ELECTION_STATE public election_state;\n    // This is a type for a single Candidate.\n    struct Candidate {\n        string name;   // short name (up to 32 bytes)\n        uint voteCount; // number of accumulated votes\n    }\n\n    address public chairperson;\n\n    // This declares a state variable that\n    // stores a `Voter` struct for each possible address.\n    mapping(address => Voter) public voters;\n\n    // A dynamically-sized array of `Candidate` structs.\n    Candidate[] public candidates;\n\n    \n    constructor(string[] memory candidateNames) {\n        chairperson = msg.sender;\n        election_state=ELECTION_STATE.OPEN;\n        for (uint i = 0; i < candidateNames.length; i++) {\n            candidates.push(Candidate({\n                name: candidateNames[i],\n                voteCount: 0\n            }));\n        }\n    }\n\n    \n    /// Give your vote\n    function vote(uint candidate) public {\n        Voter storage sender = voters[msg.sender];\n        require(election_state==ELECTION_STATE.OPEN, \"voting closed.\");\n        require(!sender.voted, \"Already voted.\");\n        sender.voted = true;\n        sender.vote = candidate;\n\n      \n        candidates[candidate].voteCount += 1;\n    }\n\n \n    function winningCandidate() public view\n            returns (uint winningCandidate_)\n    {\n        uint winningVoteCount = 0;\n        for (uint p = 0; p < candidates.length; p++) {\n            if (candidates[p].voteCount > winningVoteCount) {\n                winningVoteCount = candidates[p].voteCount;\n                winningCandidate_ = p;\n            }\n        }\n    }\n\n    function getWinnerName() public \n    {\n        require(election_state==ELECTION_STATE.OPEN, \"voting closed.\");\n        election_state=ELECTION_STATE.CLOSED;\n        winnerName = candidates[winningCandidate()].name;\n    }\n}","sourcePath":"contracts/Voting.sol","type":"contract","deployment":{"address":"0x3A6830e52DAbFa7305617D60720DAb28f7a4E83a","chainid":"42","blockHeight":28308664}}